:020000040800F2
:10000000000003207DD8000899250008A7250008D6
:10001000AD250008B3250008B92500080000000040
:1000200000000000000000000000000031C00008D7
:10003000BF2500080000000071C20008D9C20008F6
:10004000CDD80008CDD80008CDD80008CDD80008FC
:10005000CDD80008CDD80008CDD80008CDD80008EC
:10006000CDD80008CDD80008CDD80008CDD80008DC
:10007000CDD80008CDD80008CDD80008CDD80008CC
:10008000CDD80008CDD80008CDD80008CDD80008BC
:10009000CDD80008CDD80008CDD80008CDD80008AC
:1000A000CDD80008CD250008CDD80008CDD800084F
:1000B000CDD80008CDD80008CDD80008CDD800088C
:1000C000CDD80008CDD80008CDD80008CDD800087C
:1000D000CDD80008CDD80008CDD80008CDD800086C
:1000E000CDD80008CDD80008CDD80008CDD800085C
:1000F000CDD80008CDD80008CDD80008CDD800084C
:10010000CDD80008CDD80008CDD80008CDD800083B
:10011000CDD80008CDD80008E1250008CDD80008CA
:10012000CDD80008CDD80008F5250008CDD80008A6
:10013000CDD80008CDD80008CDD80008CDD800080B
:10014000CDD80008CDD80008CDD80008CDD80008FB
:10015000CDD80008CDD80008CDD80008CDD80008EB
:10016000CDD80008CDD80008CDD80008CDD80008DB
:10017000CDD80008CDD80008CDD800080000000078
:10018000CDD80008CDD80008092600081D26000893
:10019000CDD80008CDD80008CDD80008CDD80008AB
:0C01A0000000000000000000CDD80008A6
:1001B00010B5054C237833B9044B13B10448AFF3A1
:1001C00000800123237010BD1802002000000000F1
:1001D000FC02010808B5034B1BB103490348AFF308
:1001E000008008BD000000001C020020FC02010885
:1001F00081F0004102E000BF83F0004330B54FEAD8
:1002000041044FEA430594EA050F08BF90EA020F44
:100210001FBF54EA000C55EA020C7FEA645C7FEAD7
:10022000655C00F0E2804FEA5454D4EB5555B8BFFA
:100230006D420CDD2C4480EA020281EA030382EA6B
:10024000000083EA010180EA020281EA0303362DFD
:1002500088BF30BD11F0004F4FEA01314FF4801CD0
:100260004CEA113102D0404261EB410113F0004FE2
:100270004FEA03334CEA133302D0524263EB430399
:1002800094EA050F00F0A780A4F10104D5F1200E37
:100290000DDB02FA0EFC22FA05F2801841F1000192
:1002A00003FA0EF2801843FA05F359410EE0A5F166
:1002B00020050EF1200E012A03FA0EFC28BF4CF097
:1002C000020C43FA05F3C01851EBE37101F000454D
:1002D00007D54FF0000EDCF1000C7EEB00006EEB5A
:1002E0000101B1F5801F1BD3B1F5001F0CD34908E4
:1002F0005FEA30004FEA3C0C04F101044FEA44523B
:1003000012F5800F80F09A80BCF1004F08BF5FEAC1
:10031000500C50F1000041EB045141EA050130BDA1
:100320005FEA4C0C404141EB010111F4801FA4F144
:100330000104E9D191F0000F04BF01460020B1FA99
:1003400081F308BF2033A3F10B03B3F120020CDAD1
:100350000C3208DD02F1140CC2F10C0201FA0CF0AF
:1003600021FA02F10CE002F11402D8BFC2F1200C14
:1003700001FA02F120FA0CFCDCBF41EA0C019040CA
:10038000E41AA2BF01EB0451294330BD6FEA040413
:100390001F3C1CDA0C340EDC04F11404C4F12002FE
:1003A00020FA04F001FA02F340EA030021FA04F310
:1003B00045EA030130BDC4F10C04C4F1200220FA67
:1003C00002F001FA04F340EA0300294630BD21FAA5
:1003D00004F0294630BD94F0000F83F4801306BF6B
:1003E00081F480110134013D4EE77FEA645C18BF5F
:1003F0007FEA655C29D094EA050F08BF90EA020FF6
:1004000005D054EA000C04BF1946104630BD91EAED
:10041000030F1EBF0021002030BD5FEA545C05D1F0
:100420004000494128BF41F0004130BD14F580042F
:100430003CBF01F5801130BD01F0004545F0FE41A3
:1004400041F470014FF0000030BD7FEA645C1ABFD8
:10045000194610467FEA655C1CBF0B46024650EA0F
:10046000013406BF52EA033591EA030F41F400213B
:1004700030BD00BF90F0000F04BF0021704730B5C1
:100480004FF4806404F132044FF000054FF0000196
:1004900050E700BF90F0000F04BF0021704730B557
:1004A0004FF4806404F1320410F0004548BF40422C
:1004B0004FF000013EE700BF42004FEAE2014FEA81
:1004C00031014FEA02701FBF12F07F4393F07F4F5C
:1004D00081F06051704732F07F4208BF704793F05F
:1004E0007F4F04BF41F40021704730B54FF4607472
:1004F00001F0004521F000411CE700BF50EA010275
:1005000008BF704730B54FF000050AE050EA01021D
:1005100008BF704730B511F0004502D5404261EB8D
:1005200041014FF4806404F132045FEA915C3FF4CE
:10053000D8AE4FF003025FEADC0C18BF03325FEA6B
:10054000DC0C18BF033202EBDC02C2F1200300FA1C
:1005500003FC20FA02F001FA03FE40EA0E0021FA41
:1005600002F11444BDE600BF70B54FF0FF0C4CF42F
:10057000E06C1CEA11541DBF1CEA135594EA0C0FE1
:1005800095EA0C0F00F0DEF82C4481EA030621EA1C
:100590004C5123EA4C5350EA013518BF52EA033557
:1005A00041F4801143F4801338D0A0FB02CE4FF009
:1005B0000005E1FB02E506F00042E0FB03E54FF039
:1005C0000006E1FB03569CF0000F18BF4EF0010E31
:1005D000A4F1FF04B6F5007F64F5407404D25FEA2D
:1005E0004E0E6D4146EB060642EAC62141EA5551E0
:1005F0004FEAC52040EA5E504FEACE2EB4F1FD0C22
:1006000088BFBCF5E06F1ED8BEF1004F08BF5FEA9F
:10061000500E50F1000041EB045170BD06F0004651
:1006200046EA010140EA020081EA0301B4EB5C04FE
:10063000C2BFD4EB0C0541EA045170BD41F48011F6
:100640004FF0000E013C00F3AB8014F1360FDEBF1B
:10065000002001F0004170BDC4F10004203C35DAF7
:100660000C341BDC04F11404C4F1200500FA05F37A
:1006700020FA04F001FA05F240EA020001F000421B
:1006800021F0004110EBD37021FA04F642EB060191
:100690005EEA430E08BF20EAD37070BDC4F10C04BB
:1006A000C4F1200500FA04F320FA05F001FA04F27F
:1006B00040EA020001F0004110EBD37041F100016B
:1006C0005EEA430E08BF20EAD37070BDC4F1200576
:1006D00000FA05F24EEA020E20FA04F301FA05F2DE
:1006E00043EA020321FA04F001F0004121FA04F286
:1006F00020EA020000EBD3705EEA430E08BF20EA56
:10070000D37070BD94F0000F0FD101F0004640008F
:1007100041EB010111F4801F08BF013CF7D041EA11
:10072000060195F0000F18BF704703F00046520015
:1007300043EB030313F4801F08BF013DF7D043EAE6
:100740000603704794EA0C0F0CEA135518BF95EA9C
:100750000C0F0CD050EA410618BF52EA4306D1D123
:1007600081EA030101F000414FF0000070BD50EA42
:10077000410606BF1046194652EA430619D094EACC
:100780000C0F02D150EA013613D195EA0C0F05D1B6
:1007900052EA03361CBF104619460AD181EA03010A
:1007A00001F0004141F0FE4141F470014FF00000C2
:1007B00070BD41F0FE4141F4780170BD70B54FF05D
:1007C000FF0C4CF4E06C1CEA11541DBF1CEA1355DD
:1007D00094EA0C0F95EA0C0F00F0A7F8A4EB0504BF
:1007E00081EA030E52EA03354FEA013100F08880B6
:1007F0004FEA03334FF0805545EA131343EA12637F
:100800004FEA022245EA111545EA10654FEA002633
:100810000EF000419D4208BF964244F1FD0404F5EC
:10082000407402D25B084FEA3202B61A65EB030548
:100830005B084FEA32024FF480104FF4002CB6EB05
:10084000020E75EB030E22BFB61A754640EA0C0085
:100850005B084FEA3202B6EB020E75EB030E22BFC5
:10086000B61A754640EA5C005B084FEA3202B6EB06
:10087000020E75EB030E22BFB61A754640EA9C00C5
:100880005B084FEA3202B6EB020E75EB030E22BF95
:10089000B61A754640EADC0055EA060E18D04FEA53
:1008A000051545EA16754FEA06164FEAC30343EAF3
:1008B00052734FEAC2025FEA1C1CC0D111F4801FC0
:1008C0000BD141EA00014FF000004FF0004CB6E7B9
:1008D00011F4801F04BF01430020B4F1FD0C88BF58
:1008E000BCF5E06F3FF6AFAEB5EB030C04BFB6EB63
:1008F000020C5FEA500C50F1000041EB045170BD56
:100900000EF0004E4EEA113114EB5C04C2BFD4EB82
:100910000C0541EA045170BD41F480114FF0000E06
:10092000013C90E645EA060E8DE60CEA135594EA82
:100930000C0F08BF95EA0C0F3FF43BAF94EA0C0F85
:100940000AD150EA01347FF434AF95EA0C0F7FF4FA
:1009500025AF104619462CE795EA0C0F06D152EA4E
:1009600003353FF4FDAE1046194622E750EA410632
:1009700018BF52EA43067FF4C5AE50EA41047FF443
:100980000DAF52EA43057FF4EBAE12E74FF0FF3CA8
:1009900006E000BF4FF0010C02E000BF4FF0010C79
:1009A0004DF804CD4FEA410C7FEA6C5C4FEA430CF2
:1009B00018BF7FEA6C5C1BD001B050EA410C0CBF41
:1009C00052EA430C91EA030F02BF90EA020F0020A3
:1009D000704710F1000F91EA030F58BF994208BF0A
:1009E00090422CBFD8176FEAE37040F001007047C7
:1009F0004FEA410C7FEA6C5C02D150EA013C07D11E
:100A00004FEA430C7FEA6C5CD6D152EA033CD3D068
:100A10005DF8040B704700BF8446104662468C4662
:100A20001946634600E000BF01B5FFF7B7FF002895
:100A300048BF10F1000F01BD4DF808EDFFF7F4FFBE
:100A40000CBF012000205DF808FB00BF4DF808ED49
:100A5000FFF7EAFF34BF012000205DF808FB00BF6C
:100A60004DF808EDFFF7E0FF94BF012000205DF88E
:100A700008FB00BF4DF808EDFFF7CEFF94BF012043
:100A800000205DF808FB00BF4DF808EDFFF7C4FF3C
:100A900034BF012000205DF808FB00BF4FEA410C85
:100AA0007FEA6C5C02D150EA013C0AD14FEA430C68
:100AB0007FEA6C5C02D152EA033C02D14FF00000A5
:100AC00070474FF0010070474FEA410212F50012E3
:100AD00015D211D56FF47873B3EB625212D94FEA85
:100AE000C12343F0004343EA505311F0004F23FA6F
:100AF00002F018BF404270474FF00000704750EAC4
:100B0000013005D111F0004008BF6FF00040704780
:100B10004FF00000704700BF4A0011D212F50012DA
:100B200011D20DD56FF47873B3EB62520ED44FEA45
:100B3000C12343F0004343EA505323FA02F07047C5
:100B40004FF00000704750EA013002D14FF0FF3003
:100B500070474FF0000070474FEA4102B2F1E043A6
:100B600024BFB3F5001CDCF1FE5C0DD901F0004C94
:100B70004FEAC0024CEA5070B2F1004F40EB8300E4
:100B800008BF20F00100704711F0804F21D113F110
:100B90003872BCBF01F00040704741F480114FEA49
:100BA0005252C2F11802C2F1200C10FA0CF320FAD2
:100BB00002F018BF40F001004FEAC1234FEAD323EF
:100BC00003FA0CFC40EA0C0023FA02F34FEA430359
:100BD000CCE77FEA625307D150EA01331EBF4FF0E2
:100BE000FE4040F44000704701F0004040F0FE40FD
:100BF00040F40000704700BF53B94AB9002908BF4C
:100C000000281CBF4FF0FF314FF0FF3001F0F8B863
:100C1000ADF1080C6DE904CE00F006F8DDF804E053
:100C2000DDE9022304B070472DE9F047089E044631
:100C30008846002B4BD18A42154667D9B2FA82F218
:100C40004AB1C2F1200701FA02F320FA07F79540F2
:100C500047EA030894404FEA154E230CB8FBFEF711
:100C60001FFA85FC0EFB178843EA084307FB0CF1CB
:100C7000994209D9EB1807F1FF3080F01B819942A6
:100C800040F21881023F2B445B1AA4B2B3FBFEF082
:100C90000EFB103344EA034400FB0CFCA44509D9C5
:100CA0002C1900F1FF3380F00781A44540F2048144
:100CB00002382C4440EA0740A4EB0C0400271EB184
:100CC000D4400023C6E900433946BDE8F0878B4293
:100CD00009D9002E00F0EB800027C6E90001384654
:100CE0003946BDE8F087B3FA83F7002F47D18B422E
:100CF00002D3824200F2FA80841A61EB03030120DE
:100D00009846002EE0D0C6E90048DDE702B9FFDED4
:100D1000B2FA82F2002A40F08F80491B4FEA154E4A
:100D20001FFA85F80127B1FBFEFC230C0EFB1C11FA
:100D300043EA014308FB0CF1994207D9EB180CF187
:100D4000FF3002D2994200F2CD808446591AA3B2F4
:100D5000B1FBFEF00EFB101443EA044408FB00F85C
:100D6000A04507D92C1900F1FF3302D2A04500F2AB
:100D7000B6801846A4EB080440EA0C409FE7C7F190
:100D8000200CBB4022FA0CFE4EEA030E01FA07F4D7
:100D900020FA0CF521FA0CF34FEA1E482543B3FB69
:100DA000F8F92C0C08FB19331FFA8EFA44EA0343B6
:100DB00009FB0AF49C4202FA07F200FA07F10BD988
:100DC0001EEB030309F1FF3080F087809C4240F264
:100DD0008480A9F1020973441B1BADB2B3FBF8F088
:100DE00008FB103345EA034400FB0AFAA24508D980
:100DF0001EEB040400F1FF336BD2A24569D902381F
:100E0000744440EA0940A0FB0289A4EB0A044C4563
:100E1000C2464B4654D351D0002E69D0B1EB0A05DF
:100E200064EB030404FA0CFCFD40FC404CEA0505AD
:100E3000C6E90054002747E7C2F1200320FA03F770
:100E4000954001FA02F021FA03F34FEA154E3843B8
:100E5000010CB3FBFEF71FFA85F80EFB173341EACE
:100E6000034107FB08F38B4204FA02F407D969181F
:100E700007F1FF3C2FD28B422DD9023F2944CB1AD8
:100E800081B2B3FBFEF00EFB103341EA034100FBDD
:100E900008F38B4207D9691800F1FF3C17D28B4247
:100EA00015D902382944C91A40EA07473BE73746B3
:100EB000304609E70746E7E61846FBE64145ABD270
:100EC000B8EB020A69EB0E0201381346A4E760464C
:100ED000E9E7184695E76746D1E781467CE702389F
:100EE0002C4447E7ACF1020C2B442FE7384608E7C7
:100EF0003746E9E603685A004CBF43F0004323F04D
:100F000000431844704700BF61B32DE9F84F01F169
:100F1000FF3A90460646D146002707EB090404EB4A
:100F2000D4746410E50071190846FFF7E3FFA24589
:100F3000834605F10800304409D0FFF7DBFFC345C5
:100F400000F1FF3005D8404509D2671CE5E7C345ED
:100F500005D9A74202D004F1FF39DEE70021084697
:100F6000BDE8F88F08467047012807D0022807D04F
:100F7000044B00280CBF18460020704702487047F9
:100F80000248704755160008591600085D160008FB
:100F900030B5254B83B004468D1E4BB301A92846BE
:100FA000AFF30080F0B101992A46FFF7ADFF01468B
:100FB000C0B1FFF79FFF4B68A064012B2ED0002B20
:100FC00001F1040026DBFFF795FF0023C4E91303BA
:100FD0000368002B12DBFFF78DFF0023206118460A
:100FE00003B030BD002323610923184603B030BD90
:100FF0000E490F48091AC9100191D5E7C3F30360E0
:10100000FFF7B2FF002814BF002309232061184610
:1010100003B030BD0123C4E91303D9E700232361E2
:101020000523184603B030BD000000001814010865
:10103000980F01080368DA0710B5044606D49B0729
:1010400000F1480009D500F05FFC2368590709D575
:101050001A070ED5DB0613D510BD00F04DFC236832
:101060005907F5D404F1D00000F056FC23681A07A4
:10107000F0D404F5A87000F057FC2368DB06EBD42D
:1010800004F5E870BDE8104000F092BC036803B1BD
:1010900003441846704700BF09207047704700BFDF
:1010A00070B504460D4608E02B6C63612A4623693F
:1010B000214601209847082808D1296C2046FFF7CF
:1010C00067FF06460028EFD00DF09EFF0728FBD1F2
:1010D0003046296CFFF7E2FF281D00F001FC00BF3D
:1010E0002DE9F0470C1D054617460FCCADF5727D76
:1010F00003AE0FC60FCC0FC60FCC0FC694E80F007F
:1011000002ACD5F80C80D5F8189086E80F000023C3
:10111000236021E0236C6B614FF4F07221467AA8C2
:101120000DF0B4FF2B697AAA294630469847889B70
:10113000CDE900498246636431462B462A460120A8
:10114000C0470746F8B94FF4F0727AA920460DF06F
:101150009DFFBAF1080F1CD1216C2846FFF718FF3C
:10116000002F08BF0926074618BF0A260028D1D03D
:10117000A36B46F01001CDE900492A4663640120C3
:101180002B46C04700B1092738460DF5727DBDE8F2
:10119000F087BAF1070FF6D13846216CFFF77EFFD2
:1011A00003A800F09DFB00BF406C7047F0B5CB6B0F
:1011B0000B640D1D0F4606460FCDF9B001AC0FC4F0
:1011C0000FCD0FC40FCD0FC495E80F004FF0FF35C2
:1011D00084E80F00009506E033696A463146984777
:1011E0000828044608D110993046FFF7D1FE0028A0
:1011F000F2D0092079B0F0BD6846FFF71BFF062C3E
:10120000F7D139463046FFF74BFF00BF30B4DD6BF6
:10121000C160826119461D64002230BC60E700BFD6
:1012200070B5C66843690B64BEB903690A460446D3
:101230000D46014602209847072807D0082803D109
:1012400029462046FFF72CFF0DF0DEFE3046296CC4
:10125000FFF724FF281D00F043FB0122FFF740FFAA
:101260000DF0D2FEC2681AB1CA6B0A64002237E7D9
:101270009CE700BF704700BF836813B1014601209F
:1012800018477047042907D8DFE801F0030806086B
:1012900008000BB90F2A03D90220704701207047BC
:1012A00000EB820218465368009A1360704700BF33
:1012B00010B584B0002303AC0A4600941946FFF72A
:1012C000E1FF039804B010BD042907D8DFE801F05E
:1012D0000308060808000BB90F2A03D9022070473B
:1012E0000120704700EB8200009A126842601846A5
:1012F000704700BF10B584B004AC002344F8042D3F
:101300000A4600941946FFF7DFFF04B010BD00BF86
:10131000F0B5D36B1364151D07460E460FCDADF522
:101320000F7D17AC0FC40FCD0FC40FCD0FC495E8C0
:101330000F004FF0FF3584E80F00169510E016A857
:10134000FFF7D8FF314616A8B84716AA694678B9FC
:10135000049B08209847052804460AD0092807D08E
:1013600026996846FFF714FE6A460C210028E6D04D
:10137000092416A8FFF75EFE20460DF50F7DF0BD8F
:101380002DE9F04F0D46C96C89B00C1D164600F0D2
:10139000030B0A6806941F46002B68D0130CD9B2C1
:1013A00012048DF81D30022304EB810405928DF8A0
:1013B0001C302B6DBBF1020F08BFAC6B13F00103A7
:1013C00046D1019300F008030093D4F80090B9F1DE
:1013D000000F00F0F380022F45D0B4F80090B4F86D
:1013E00002800434AB6C28F0010A0F2130469A4485
:1013F000FFF75EFF824534D829F00103534483424E
:1014000094BF002001204FEA480808F0020809F0C4
:10141000010948EA0908B8F1010F3AD031D3B8F10F
:10142000020F1AD1236823F0004ABBF1000F66D1E6
:1014300030B1009A002A6CD0BAF1000F00F0908011
:10144000002B00DA04340AF1010304EB8304BCE747
:10145000304605A900F046FB78B1092009B0BDE887
:10146000F08F0020CFE7D4F804800834BAE71202E6
:1014700003230592ADF81C309BE7082009B0BDE8B6
:10148000F08FBBF1000F02D0002840F0B48004348C
:101490009BE7BBF1000F18D1A8B1D4E90023991C38
:1014A0004FEAD272D9D005F158010133049100F00E
:1014B000B580201DFFF7EAFD04AB014628460CF07D
:1014C000CBFC002867D108347FE70D213046D5F8E2
:1014D0002080FFF7EDFE8045F5D1AB6A9C42F2D14A
:1014E0002046FFF707FD0F2102463046FFF702FFB7
:1014F00030462A460021FFF7FDFE0720AEE70D210A
:101500003046D5F82080FFF7D3FE804532D02368DF
:1015100096E7BAF1000F23D005F1580304F104084F
:10152000CDF808B0DDF800900397A3461C4602E012
:101530005745B94640D040460494FFF7A7FD04AB99
:101540000146002228460CF087FC09F1010708F14A
:1015500004080028ECD0D1455C46DDE902B7D6D1BD
:1015600030460D21FFF7A4FE049B2862C5E909342B
:10157000062073E7AB6A9C42C9D104224FF00008F1
:10158000A318C5E90AA8C5E90C23236843454DDB28
:101590000123019357E780460D213046FFF788FE6F
:1015A000B8F1020F28623ED12B46049A43F82C2F43
:1015B0006B62AC62062051E75C46D1E705A9304674
:1015C00000F090FA00287FF448AF019B002B3FF415
:1015D00054AF0F213046FFF76BFE0E210246304616
:1015E000FFF788FE30461A4A0F21FFF783FE0720D7
:1015F00009B0BDE8F08F2046FFF77CFC04340746B5
:10160000AC6328460CF086FC00283FF426AF304639
:101610003A460F21FFF76EFE07201FE730460D21E7
:10162000FFF746FE2862049B6B62C2E70AF10100E5
:1016300004EB8000FFF75EFC0F2102463046FFF707
:1016400059FE30462A464146FFF754FE072005E77B
:1016500075E20008002393E6012391E602238FE65A
:101660002DE9F0410546C4B0042906D8DFE801F0B1
:101670004D2B05030900032B5FD0022044B0BDE8C9
:10168000F081002BF9D1102AF7D82B68DC0600F185
:10169000F48022AC2046019200F094F9A86B019AE4
:1016A0000023012606FA03F1114203D0016844F831
:1016B000231004300133042BF4D1A863204600F03A
:1016C00077F90020DAE7012B4FEA124697B252D0A1
:1016D000052BD2D106EB0708B8F1200FCDD80F2E7D
:1016E00040F29980B846002F40F0DB80AA6BAA63D5
:1016F0000F2E40F2BE80B8F1000F02D002A800F019
:101700000BF9002044B0BDE8F081002BB5D1AC6BE3
:1017100097B2281D012606FA03F1394203F10103AD
:1017200002D0216801600434102B00F10400F2D1D2
:1017300012F40050E5D1AC63A0E7160C97B2F31990
:10174000102B9AD82B681A075DD422AC204600F0E3
:101750000DF904EBC601AB6B3FB103EBC702186890
:1017600041F8040B04339342F9D12046AB6300F0F7
:10177000DBF8002082E7F219102A3FF67EAF0F2E29
:101780003FF67BAF2A68D10708D5284622F003022E
:1017900040F8482B019300F0B3F8019B019322AC71
:1017A000204600F0ADF8A96B019B002F00F095805A
:1017B0007F0004EBC6044FF00008043C01EB8702F5
:1017C00051F8040B44F8040F9142F9D1B8F1000F1D
:1017D0000FD002AC102E314638BF102104EBC101EE
:1017E000843902EBC80452F8040B41F8040F944208
:1017F000F9D1012B7FF47BAF22AC0432AA632046DF
:1018000000F07AF87DE723F008032B6005F5A87057
:1018100000F0ACF899E7B8F1100F2A6843D9D00767
:10182000A8F110080BD5284622F0010242F002026E
:1018300040F8482B019300F06BF82A68019B510790
:1018400025D40F2E04D822A8019300F061F8019B43
:10185000019302AC204600F063F8C6F110010029A4
:10186000AA6B019BB6DD22AC4F0004EBC604114607
:10187000A3E722A800F048F83DE723F010032B600F
:1018800005F5E870019200F09DF8019A01E72846FD
:1018900022F0040240F8D02B019300F041F8019BA4
:1018A000CFE72A68CBE7D0070AD5284622F0010205
:1018B00042F0020240F8482B019300F029F8019B06
:1018C000019322AC204600F023F8B846A96B019B97
:1018D000002F7FF46DAF0A4609E70A468DE700BF87
:1018E00000F1340191E838009C46A6464CF8045DAE
:1018F00090E8FF0FE54600BD90EC210B704700BF5C
:1019000080EC210B704700BF90EC200B704700BFAC
:1019100080EC200B704700BFD0EC200B704700BF5D
:10192000C0EC200B704700BFF0EC0201F0EC02119C
:10193000F0EC0221F0EC0231F0EC0241F0EC02514B
:10194000F0EC0261F0EC0271F0EC0281F0EC02913B
:10195000F0EC02A1F0EC02B1F0EC02C1F0EC02D12B
:10196000F0EC02E1F0EC02F1704700BFE0EC0201A4
:10197000E0EC0211E0EC0221E0EC0231E0EC02418B
:10198000E0EC0251E0EC0261E0EC0271E0EC02817B
:10199000E0EC0291E0EC02A1E0EC02B1E0EC02C16B
:1019A000E0EC02D1E0EC02E1E0EC02F1704700BFB4
:1019B000B0FC0181B0FC0191B0FC01A1B0FC01B10F
:1019C000704700BFA0FC0181A0FC0191A0FC01A117
:1019D000A0FC01B1704700BFEC4600B52DE90050F6
:1019E0002DE9FF1F4FF000032DE90C0001A9FFF7BF
:1019F000DDFBDDF840E012B0704700BFEC4600B5FB
:101A00002DE900502DE9FF1F4FF000032DE90C00D8
:101A100001A9FFF705FCDDF840E012B0704700BFF8
:101A2000EC4600B52DE900502DE9FF1F4FF00003F3
:101A30002DE90C0001A9FFF715FCDDF840E012B01C
:101A4000704700BFEC4600B52DE900502DE9FF1F9F
:101A50004FF000032DE90C0001ABFFF7D7FBDDF8D9
:101A600040E012B0704700BFEC4600B52DE90050D1
:101A70002DE9FF1F4FF000032DE90C0001AAFFF72D
:101A800047FCDDF840E012B0704700BF027A82B92F
:101A9000437AABB14268013B10B44372136803212F
:101AA000141D01721A02446002605DF8044B180EA6
:101AB00070470368013A02721A020260180E7047FA
:101AC000B020704700B585B003AA002300921946E4
:101AD0000C22FFF7D7FB039805B05DF804FB00BFAD
:101AE000F0E700BF2DE9F043054685B00E464FF004
:101AF00000083046FFF7CAFFB028044600F0B18066
:101B0000070620D500F0F003802B65D0902B36D04F
:101B1000A02B78D0B02B47D0C02B00F08A8000F0EB
:101B2000F803D02B0BD100F00702013242F400225F
:101B3000052301212846FFF793FD0028D9D009206D
:101B400005B0BDE8F0830DF10C09002319468700AC
:101B5000CDF800900D222846FFF794FBFFB2039BBF
:101B6000CDF80090043760064CBFDF1BFF18002340
:101B700019460D2228460397FFF7A6FBB9E700F0A8
:101B80000D030D2BDBD003AF002300F00F0219462D
:101B900000972846FFF776FB0023009719460D2291
:101BA0002846FFF791FBA4E7B1285FD0B22800F0E8
:101BB000CC80B3287ED000F0FC03B42BBFD000F063
:101BC00007020132012342F4002219462846FFF79A
:101BD00047FD00288DD0B2E73046FFF757FF2402BB
:101BE0000443B4F5004FAAD024010023A2B2194641
:101BF0002846FFF735FD0028A1D114F4004F18BF87
:101C00004FF0010875E7C24302F007034FF47F620B
:101C10001A41010702F47F624FF0000348BF42F40B
:101C2000804219462846FFF71BFD00283FF461AFAC
:101C300085E7C62851D0C7285AD000F0F803C02B3A
:101C400069D0C82875D0C9287FF479AF3046FFF72E
:101C50001DFF020300F00F0002F470220130024366
:101C600066E7B8F1000F14D0002069E73046FFF7AF
:101C70000DFF00283FF463AF10F0F0037FF45FAF77
:101C8000024619462846FFF7EBFC00283FF431AF27
:101C900055E703AC43460E22414600942846FFF721
:101CA000F1FA0094284643460F224146FFF70CFB09
:101CB000404645E73046FFF7E9FE010300F00F001C
:101CC00001F47021421C01230A4328461946FFF7FC
:101CD000C7FC00283FF40DAF31E73046FFF7D6FED2
:101CE000010300F00F0001F47021421C0323EBE715
:101CF0003046FFF7CBFE024600283FF420AF10F03D
:101D0000F0037FF41CAF04212846FFF7A9FC00284C
:101D10003FF4EFAE13E700F00F020132032342F469
:101D2000202219462846FFF79BFC00283FF4E1AE2D
:101D300005E73046FFF7AAFE00F0F00200F00F03BF
:101D40001032013343EA0232F2E600230DF10C09AE
:101D50000D221946CDF800902846FFF793FA304639
:101D6000FFF794FE02064FF002070CD5039B00F02C
:101D70007F00B840034430460393FFF787FE030615
:101D800007F10707F2D4039BCDF8009000F07F0421
:101D900003F50172BC400023144419460D22284665
:101DA0000394FFF791FAA4E610B5C36C84B05A68A7
:101DB00003208DF80C00DC798DF80D4012020833F9
:101DC000084601A901920293FFF78CFE04B010BDF2
:101DD00008B5FFF785FE806C08BD00BF08B5FFF7AA
:101DE0007FFEC06CC37900EB8300083008BD00BFE4
:101DF00008B50DF009F900BF08B5FFF7F9FF00BFFE
:101E0000704700BF10F8012B11F8013B012A28BFD1
:101E10009A42F7D0D01A7047034613F8012B002AD4
:101E2000FBD1181A013870470000000000000000C4
:101E300001F0FF01102A2BDB10F0070F08D010F87B
:101E4000013B013A8B422DD010F0070F42B3F6D17F
:101E5000F0B441EA012141EA014122F007047FF098
:101E600000070023F0E80256083C85EA010586EAEF
:101E7000010685FA47F5A3FA87F586FA47F6A5FA2B
:101E800087F68EB9EED1F0BC01F0FF0102F0070237
:101E900032B110F8013B013A83EA010313B1F8D1E2
:101EA0000020704701387047002D06BF35460338C3
:101EB000073815F0010F07D1013015F4807F02BFFC
:101EC000013015F4C03F0130F0BC0138704700BF4D
:101ED00080B500AF174B184A1A60164B03225A60A0
:101EE000144B00229A60134B0022DA60114B4FF41E
:101EF00000221A610F4B4FF440125A610D4B002221
:101F00001A760C4B00225A760A4B00229A76094B1D
:101F10000122DA76074B00221A77064B00225A7705
:101F2000044802F099FD0346002B01D000F010FA9E
:101F300000BF80BD5C0200200064004080B58AB014
:101F400000AF786007F1140300221A605A609A60AB
:101F5000DA601A617B681B68194A93422BD100230F
:101F60003B61184B1B6C174A43F000731364154B0D
:101F70001B6C03F000733B613B690023FB60114B5A
:101F80001B6B104A43F0080313630E4B1B6B03F0EB
:101F90000803FB60FB6803237B610223BB61002312
:101FA000FB6103233B6209237B6207F1140319469B
:101FB000054803F049FE00BF2837BD4680BD00BF7D
:101FC0000064004000380240000C024080B582B03E
:101FD00000AF00237B600C4B1B6B0B4A43F4800368
:101FE0001363094B1B6B03F480037B607B68002247
:101FF00005213A2003F0F6F93A2003F00FFA00BF6A
:102000000837BD4680BD00BF00380240B0B588B07B
:1020100000AF0A4B3C1D1D460FCD0FC495E80700CD
:1020200084E807003B1D0021184609F089FE02469E
:10203000034B1A6000BF2037BD46B0BD2403010822
:102040008402002080B58EB000AF07F12403002287
:102050001A605A609A60DA601A6100233B62624B30
:102060001B6B614A43F0100313635F4B1B6B03F060
:1020700010033B623B6A0023FB615B4B1B6B5A4ABC
:1020800043F040031363584B1B6B03F04003FB61A9
:10209000FB690023BB61544B1B6B534A43F00203A3
:1020A0001363514B1B6B03F00203BB61BB6900233D
:1020B0007B614D4B1B6B4C4A43F0010313634A4B4E
:1020C0001B6B03F001037B617B6900233B61464B83
:1020D0001B6B454A43F008031363434B1B6B03F030
:1020E00008033B613B690023FB603F4B1B6B3E4A8F
:1020F00043F4807313633C4B1B6B03F48073FB60EE
:10210000FB680023BB60384B1B6B374A43F08003EE
:102110001363354B1B6B03F08003BB60BB6800236C
:102120007B60314B1B6B304A43F0200313632E4B13
:102130001B6B03F020037B607B68002242F2FE11E0
:102140002A4803F043FF00223C21294803F03EFFC8
:10215000002244F24001274803F038FF00224FF4E8
:102160000061254803F032FF42F2FE137B62012337
:10217000BB620023FB6200233B6307F12403194683
:102180001A4803F061FD3C237B620123BB620023FC
:10219000FB6200233B6307F124031946144803F054
:1021A00053FD44F240037B620123BB620023FB62C8
:1021B00000233B6307F1240319460E4803F044FD56
:1021C0004FF400637B620123BB620023FB620023A8
:1021D0003B6307F124031946074803F035FD00BFB0
:1021E0003837BD4680BD00BF0038024000180240AD
:1021F000001C0240001402400010024080B500AFF5
:1022000002F0C6FB00F01EF8FFF71CFFFFF7DEFE32
:10221000FFF75EFE00F0F4FA00F0D6FC00F026FBBB
:1022200000F08AFA00F09CF800F0FAFC00F078FC6C
:1022300000F0A0FC0BF0B2FAFFF7E8FE09F079FD20
:10224000FEE7000080B594B000AF07F12003302214
:10225000002118460CF025FF07F10C0300221A603C
:102260005A609A60DA601A610023BB602D4B1B6CC8
:102270002C4A43F0805313642A4B1B6C03F08053A9
:10228000BB60BB6800237B60274B1B68264A43F476
:1022900040431360244B1B6803F440437B607B681E
:1022A00001233B624FF480337B620223BB634FF414
:1022B0008003FB6306233B64A8237B640223BB6487
:1022C0000423FB6407F12003184603F099FE03463C
:1022D000002B14BF01230023DBB2002B01D000F040
:1022E00037F80F23FB6002233B6100237B614FF42F
:1022F000A053BB614FF48053FB6107F10C03052130
:10230000184604F0BFF80346002B14BF0123002336
:10231000DBB2002B01D000F01BF800BF5037BD46E8
:1023200080BD00BF003802400070004080B582B020
:1023300000AF78607B681B68044A934201D102F0C9
:1023400049FB00BF0837BD4680BD00BF00440140C7
:1023500080B400AF00BFBD465DF8047B704700004D
:1023600080B500AF174B184A1A60164B4FF48272B3
:102370005A60144B00229A60124B0022DA60114B13
:1023800000221A610F4B00225A610E4B4FF400726B
:102390009A610C4B3022DA610A4B00221A62094B17
:1023A00000225A62074B00229A62064B0A22DA6226
:1023B000044804F061FA0346002B01D0FFF7C8FF80
:1023C00000BF80BD880200200050014080B58AB067
:1023D00000AF786007F1140300221A605A609A6017
:1023E000DA601A617B681B68194A93422CD100237A
:1023F0003B61184B5B6C174A43F480135364154BD5
:102400005B6C03F480133B613B690023FB60114B61
:102410001B6B104A43F0200313630E4B1B6B03F03E
:102420002003FB60FB684FF460737B610223BB6198
:102430000023FB6103233B6205237B6207F1140346
:102440001946054803F000FC00BF2837BD4680BD93
:1024500000500140003802400014024080B582B0B4
:1024600000AF00237B601E4B5B6C1D4A43F480432E
:1024700053641B4B5B6C03F480437B607B680023DD
:102480003B60174B1B6C164A43F080531364144B8C
:102490001B6C03F080533B603B68002205216FF00A
:1024A0000B0002F09FFF002205216FF00A0002F0EE
:1024B00099FF002205216FF0090002F093FF00222E
:1024C00005216FF0030002F08DFF00220F216FF055
:1024D000010002F087FF00BF0837BD4680BD00BF86
:1024E0000038024080B58CB000AF78600023FB62FA
:1024F0000023BB6200227968192002F073FF1920C3
:1025000002F08CFF0023FB601F4B5B6C1E4A43F400
:10251000003353641C4B5B6C03F40033FB60FB68BB
:1025200007F1100207F114031146184604F072F97E
:1025300004F05CF903465B00FB62FB6A134AA2FBF2
:1025400003239B0C013BBB62114B124A1A60104BD8
:1025500040F2E732DA600E4ABB6A53600C4B00224D
:102560001A610B4B00229A60094804F037FC0346BD
:10257000002B04D1064804F05CFC034600E0012374
:1025800018463037BD4680BD0038024083DE1B430D
:10259000E00200200044014080B400AF00BFBD460F
:1025A0005DF8047B704780B400AFFEE780B400AFF5
:1025B000FEE780B400AFFEE780B400AFFEE780B472
:1025C00000AF00BFBD465DF8047B704780B500AF2B
:1025D000024804F0BBFC00BF80BD00BFE002002049
:1025E00080B500AF024804F0B1FC00BF80BD00BF61
:1025F0006403002080B500AF024803F0BDF800BFBF
:1026000080BD00BFE404002080B500AF024805F0A3
:10261000CBFB00BF80BD00BFE403002080B500AF4E
:10262000024805F0C1FB00BF80BD00BF24040020AC
:1026300080B400AF01231846BD465DF8047B7047A7
:1026400080B582B000AF786039600CF0E5FC0246DE
:10265000162313604FF0FF3318460837BD4680BD80
:1026600080B582B000AF78604FF0FF317868FFF737
:10267000E7FFFEE780B584B000AF7860114B1B68C0
:10268000002B02D10F4B104A1A600E4B1B68FB60E7
:102690000C4B1A687B6813446A46934207D90CF0C6
:1026A000BBFC02460C2313604FF0FF3306E0054BE2
:1026B0001A687B681344034A1360FB681846103796
:1026C000BD4680BD20030020D083002080B400AF31
:1026D000164BD3F88830154A43F47003C2F888309B
:1026E000134B1B68124A43F001031360104B002286
:1026F0009A600F4B1B680E4A23F0847323F48033D7
:1027000013600B4B0B4A5A60094B1B68084A23F4B1
:1027100080231360064B0022DA60044B4FF0006206
:102720009A6000BFBD465DF8047B704700ED00E095
:10273000003802401030002480B58AB000AF07F1A5
:10274000200300221A605A603B1D00221A605A6062
:102750009A60DA601A615A619A61284B4FF08042A0
:102760001A60264B53225A60244B00229A60234B56
:1027700044F61F62DA60214B00221A611F4B0022CF
:102780009A611E4804F079FB0346002B01D0FFF745
:10279000DFFD00233B6200237B6207F12003194623
:1027A000164805F03EF80346002B01D0FFF7D0FD98
:1027B00060237B604FF47A73BB600023FB600023CF
:1027C0007B613B1D002219460C4804F0C7FC034600
:1027D000002B01D0FFF7BCFD3B1D04221946074822
:1027E00004F0BCFC0346002B01D0FFF7B1FD034809
:1027F00000F036F900BF2837BD4680BD2403002015
:1028000080B582B000AF3B4600221A605A60154B7B
:10281000154A1A60134BA7225A60124B00229A6085
:10282000104B4FF47A72DA600E4B00229A610D4819
:1028300004F0D4FA0346002B01D0FFF789FD0023F2
:102840003B6000237B603B461946064804F0E9FFE5
:102850000346002B01D0FFF77BFD00BF0837BD46C4
:1028600080BD00BF640300200010004080B592B01E
:1028700000AF07F1400300221A605A6007F12403F9
:1028800000221A605A609A60DA601A615A619A618D
:102890003B1D2022002118460CF003FC3F4B404A10
:1028A0001A603E4BA7225A603C4B00229A603B4B79
:1028B00044F61F62DA60394B00221A61374B00225E
:1028C0005A61364B00229A61344804F0D6FA034626
:1028D000002B01D0FFF73CFD00233B6400237B6409
:1028E00007F1400319462D4804F09BFF0346002BD7
:1028F00001D0FFF72DFD60237B620023BB62002324
:10290000FB6200233B6300237B630023BB63002344
:10291000FB6307F1240300221946204804F01EFC43
:102920000346002B01D0FFF713FD07F12403042217
:1029300019461A4804F012FC0346002B01D0FFF799
:1029400007FD07F1240308221946144804F006FC89
:102950000346002B01D0FFF7FBFC00237B60002324
:10296000BB600023FB6000233B6100237B614FF4CD
:102970000053BB6100233B623B1D1946074804F02E
:1029800095FF0346002B01D0FFF7E2FC034800F05F
:1029900067F800BF4837BD4680BD00BFA4030020D4
:1029A0000004014080B485B000AF78607B681B688C
:1029B000B3F1804F0ED10023FB60134B1B6C124A06
:1029C00043F001031364104B1B6C03F00103FB6025
:1029D000FB6812E07B681B680C4A93420DD1002310
:1029E000BB60094B5B6C084A43F002035364064B1F
:1029F0005B6C03F00203BB60BB6800BF1437BD46CD
:102A00005DF8047B704700BF0038024000040140BD
:102A100080B584B000AF78607B681B680E4A934233
:102A200015D10023FB600D4B1B6C0C4A43F01003C7
:102A300013640A4B1B6C03F01003FB60FB6800225D
:102A40000521362002F0CEFC362002F0E7FC00BF64
:102A50001037BD4680BD00BF001000400038024066
:102A600080B58AB000AF786007F1140300221A60C5
:102A70005A609A60DA601A617B681B68B3F1804F14
:102A80001ED100233B61224B1B6B214A43F0010303
:102A900013631F4B1B6B03F001033B613B69032373
:102AA0007B610223BB610023FB6100233B620123A6
:102AB0007B6207F114031946164803F0C5F822E0BB
:102AC0007B681B68144A93421DD10023FB60104BA6
:102AD0001B6B0F4A43F4807313630D4B1B6B03F4A2
:102AE0008073FB60FB68E0237B610223BB610023F2
:102AF000FB6100233B6203237B6207F11403194649
:102B0000064803F0A1F800BF2837BD4680BD00BFCE
:102B10000038024000000240000401400020024052
:102B200080B500AF114B124A1A60104B4FF4E132DE
:102B30005A600E4B00229A600C4B0022DA600B4B5D
:102B400000221A61094B0C225A61084B00229A613B
:102B5000064B0022DA61054804F00EFF0346002B05
:102B600001D0FFF7F5FB00BF80BD00BFE4030020EC
:102B70000078004080B500AF114B124A1A60104B2C
:102B80004FF416525A600E4B00229A600C4B0022F2
:102B9000DA600B4B00221A61094B0C225A61084B78
:102BA00000229A61064B0022DA61054804F0E4FE37
:102BB0000346002B01D0FFF7CBFB00BF80BD00BF59
:102BC00024040020007C004080B500AF114B124A65
:102BD0001A60104B114A5A600E4B00229A600D4B3E
:102BE0000022DA600B4B4FF480621A61094B042219
:102BF0005A61084B00229A61064B0022DA610548AF
:102C000004F0BAFE0346002B01D0FFF7A1FB00BF82
:102C100080BD00BF6404002000100140A0860100B8
:102C200080B500AF114B124A1A60104B4FF4E132DD
:102C30005A600E4B00229A600C4B0022DA600B4B5C
:102C400000221A61094B0C225A61084B00229A613A
:102C5000064B0022DA61054804F08EFE0346002B85
:102C600001D0FFF775FB00BF80BD00BFA4040020AA
:102C70000044004080B590B000AF786007F12C03AD
:102C800000221A605A609A60DA601A617B681B68D9
:102C9000844A934235D10023BB62834B1B6C824A2A
:102CA00043F080431364804B1B6C03F08043BB6292
:102CB000BB6A00237B627C4B1B6B7B4A43F0100397
:102CC0001363794B1B6B03F010037B627B6A4FF439
:102CD000C073FB6202233B6301237B630323BB635B
:102CE0000823FB6307F12C031946704802F0ACFF80
:102CF00000220521522002F075FB522002F08EFBCB
:102D0000CCE07B681B686A4A934234D100233B6263
:102D1000654B1B6C644A43F000431364624B1B6CAD
:102D200003F000433B623B6A0023FB615E4B1B6B7D
:102D30005D4A43F0100313635B4B1B6B03F01003FE
:102D4000FB61FB690323FB6202233B6301237B637B
:102D50000323BB630823FB6307F12C031946534885
:102D600002F072FF00220521532002F03BFB5320AA
:102D700002F054FB92E07B681B684E4A93425CD1A0
:102D80000023BB61484B5B6C474A43F0100353641C
:102D9000454B5B6C03F01003BB61BB6900237B6197
:102DA000414B1B6B404A43F0020313633E4B1B6BCA
:102DB00003F002037B617B69C023FB6202233B6358
:102DC00001237B630323BB630723FB6307F12C030E
:102DD0001946394802F038FF384B394A1A60374BE8
:102DE0004FF000625A60354B00229A60334B00224C
:102DF000DA60324B4FF480621A61304B00225A6124
:102E00002E4B00229A612D4B4FF48072DA612B4BCE
:102E10004FF440321A62294B00225A62274802F0CE
:102E20000BFB0346002B01D0FFF792FA7B68234A85
:102E30005A63224A7B68936330E07B681B68214AAF
:102E400093422BD100233B61174B1B6C164A43F472
:102E500000331364144B1B6C03F400333B613B6978
:102E60000023FB60104B1B6B0F4A43F008031363F6
:102E70000D4B1B6B03F00803FB60FB686023FB62D8
:102E800002233B6301237B630323BB630723FB63B1
:102E900007F12C0319460C4802F0D6FE00BF40375C
:102EA000BD4680BD0078004000380240001002405E
:102EB000007C00400010014000040240E4040020B7
:102EC0004064024000440040000C024080B487B0DF
:102ED00000AF87ED010AD7ED017AB6EE007A67EE12
:102EE000877AC7ED057A7B683B6107F110031B68A1
:102EF000FB60FB685A10124B9B1AFB6007F10C0336
:102F00001B683B6197ED047AD7ED057A27EE277AA7
:102F1000D7ED047A67EE277AB7EE087A37EE677A4C
:102F2000D7ED047A67EE277AC7ED047A3B6907EE9E
:102F3000903AB0EE670A1C37BD465DF8047B7047D7
:102F4000DF59375F80B584B002AF03460A46FB7194
:102F50001346BB7100224021124803F037F8FB7979
:102F600003F07F03DAB2104B1A70C82300930123D9
:102F70000E4A0D490E4803F0E3FC0B4ABB7913706F
:102F8000C82300930123094A0749094803F0D8FCE4
:102F900001224021034803F019F80023184608379E
:102FA000BD4680BD00140240880500208905002030
:102FB0008802002080B584B002AF0346FB71002276
:102FC0004021124803F002F8FB7963F07F03DAB284
:102FD0000F4B1A70C823009301230E4A0C490E4868
:102FE00003F0AEFCC823009301230A4A08490A48AB
:102FF00003F0A6FC01224021044802F0E7FF054B44
:103000001B7818460837BD4680BD00BF001402403B
:1030100088050020890500208802002080B584B042
:1030200002AF03463960FB711346BB710022402199
:10303000144802F0CBFFFB7963F07F03DAB2124B46
:103040001A70114B1A78114B1A70C8230093012380
:103050000F4A0D490F4803F073FCBB799AB2C8239D
:10306000009313463A6809490A4803F069FC0122B3
:103070004021044802F0AAFF002318460837BD4645
:1030800080BD00BF00140240880500200800002019
:10309000890500208802002080B582B000AF034679
:1030A0000A46FB711346BB7100212A20FFF74AFF35
:1030B000022001F0AFFCFB7919462920FFF742FFFF
:1030C000022001F0A7FCBB7919466420FFF73AFF04
:1030D000022001F09FFC81212A20FFF733FF0A2004
:1030E00001F098FC00BF0837BD4680BD80B584B0B4
:1030F00000AF0346FB71FB7919463220FFF722FF30
:103100000A2001F087FC80213420FFF71BFF0A20F2
:1031100001F080FC3520FFF74DFF0346FB730021D3
:103120003420FFF70FFF0A2001F074FCFB7B1846E8
:103130001037BD4680BD80B582B000AF0346FB713D
:103140000B46BB7113467B71FB7919462820FFF7AC
:10315000F9FE022001F05EFC0A212920FFF7F2FEB1
:10316000022001F057FC01216420FFF7EBFE022052
:1031700001F050FCFB7963F07F03DBB21946252098
:10318000FFF7E0FE022001F045FCBB79194626203E
:10319000FFF7D8FE022001F03DFC03213420FFF7A9
:1031A000D1FE022001F036FC03216720FFF7CAFEA2
:1031B000022001F02FFC81212A20FFF7C3FE062008
:1031C00001F028FC7B7963F07F03DBB219462720EE
:1031D000FFF7B8FE022001F01DFC00BF0837BD4616
:1031E00080BD80B500AF30216A20FFF7ABFE0A201A
:1031F00001F010FC0D212420FFF7A4FE0A2001F0AD
:1032000009FC0E212820FFF79DFE0A2001F002FC98
:103210008E213120FFF796FE0A2001F0FBFB0121F1
:103220000B20FFF739FF0A2001F0F4FB0020FFF725
:103230005DFF0346102B01D0012359E001210B2033
:10324000FFF72AFF0A2001F0E5FB00210A20FFF723
:1032500023FF0A20FFF74AFF0346002B01D0022379
:1032600046E00A2001F0D6FB00210B20FFF714FFF7
:103270000B20FFF73BFF0346002B01D0032337E071
:103280000A2001F0C7FB24214120FFF705FF412060
:10329000FFF72CFF0346242B01D0042328E00A204B
:1032A00001F0B8FBC0214220FFF7F6FE4220FFF7F5
:1032B0001DFF0346C02B01D0052319E00A2001F0B1
:1032C000A9FB00212A20FFF73DFE0A2001F0A2FB06
:1032D00000213420FFF736FE0A2001F09BFB062276
:1032E00003210E20FFF727FF642001F093FB00234A
:1032F000184680BD80B582B000AF7860062279683C
:103300004920FFF78BFE00BF0837BD4680BD000097
:1033100080B500AF0E2261493B20FFF77FFE5F4B77
:103320001B781B021AB25D4B5B781BB213431AB2B7
:103330005B4B1A80594B9B781B021AB2574BDB78B8
:103340001BB213431AB2564B5A80544B1B791B02C3
:103350001AB2524B5B791BB213431AB2504B9A808C
:103360004E4B9B791B021AB24C4BDB791BB21343B9
:103370001AB24B4B9A81494B1B7A1B021AB2474B2C
:103380005B7A1BB213431BB29AB2454BB3F91A30A6
:103390009BB2D31A9BB21AB2414BDA813F4B9B7A54
:1033A0001B021AB23D4BDB7A1BB213431BB29AB21B
:1033B0003B4BB3F91C309BB2D31A9BB21AB2384BB9
:1033C0001A82364B1B7B1B021AB2344B5B7B1BB23F
:1033D00013431BB29AB2324BB3F91E309BB2D31ACD
:1033E0009BB21AB22E4B5A822E48FFF783FF2C4B0A
:1033F0002C4A06331068186092889A800C2228495B
:1034000029480BF043FE264BB3F90C3007EE903AF7
:10341000B8EEE77ADFED256AC7EE267AB3EE057AD5
:1034200077EE877A204BC3ED037A1D4BB3F90E304C
:1034300007EE903AF8EEE77ADFED1D6A87EEA67A9E
:10344000DFED1C6AC7EE267A174BC3ED047A144BE6
:10345000B3F9103007EE903AF8EEE77ADFED146A30
:1034600087EEA67ADFED136AC7EE267A0E4BC3ED20
:10347000057A0B4BB3F9123007EE903AF8EEE77A83
:10348000DFED0B6A87EEA67ADFED0A6AC7EE267AD1
:10349000054BC3ED067A00BF80BD00BF8C05002040
:1034A000A40500209C050020C40500205CEFA64375
:1034B0006F1283413333654280B582B000AF03465B
:1034C000FB71FB79DB00DBB219461B20FFF73AFDED
:1034D000034618460837BD4680BD80B582B000AFB0
:1034E0000346FB71FB79DB00DBB219461C20FFF7BA
:1034F00029FD034618460837BD4680BD80B586B015
:1035000000AF642001F086FA7520FFF753FD0346F3
:103510001A46294B1A700023FB753B4600221A609D
:103520005A609A60DA601A616B233B7080237B706B
:103530006B23BB700323FB706C233B711A23BB719D
:103540001B233B721C23BB721023FB721D233B7396
:1035500007237B736A23BB732023FB730023FB7554
:1035600017E0FB7D5B0007F11802134413F8182CD9
:10357000FB7D5B0007F118010B4413F8173C19465B
:103580001046FFF7DFFC012001F044FAFB7D013318
:10359000FB75FB7D072BE4D90320FFF78DFF02208D
:1035A000FFF79BFFFFF71DFE00F008F80023184609
:1035B0001837BD4680BD00BFF805002080B582B039
:1035C00000AF00237B607CE00E2266493B20FFF7C2
:1035D00025FD654BB3F914309AB2624B1B781B0280
:1035E00019B2604B5B781BB20B431BB29BB2134406
:1035F0009BB21AB25C4B9A825B4BB3F916309AB20B
:10360000584B9B781B0219B2564BDB781BB20B430D
:103610001BB29BB213449BB21AB2534BDA82524B89
:10362000B3F918309AB24F4B1B791B0219B24D4BAC
:103630005B791BB20B431BB29BB213449BB21AB211
:10364000494B1A83484BB3F91A309AB2454B1B7A4F
:103650001B0219B2434B5B7A1BB20B431BB29BB2EA
:1036600013449BB21AB2404B5A833F4BB3F91C3000
:103670009AB23C4B9B7A1B0219B23A4BDB7A1BB2D3
:103680000B431BB29BB213449BB21AB2364B9A83C4
:10369000354BB3F91E309AB2324B1B7B1B0219B269
:1036A000304B5B7B1BB20B431BB29BB213449BB2F0
:1036B0001AB22D4BDA83052001F0ACF97B68013397
:1036C0007B607B68B3F5967FFFF67EAF264BB3F940
:1036D0001430264A82FB03125211DB17D31A1AB296
:1036E000214B9A82204BB3F91630204A82FB0312F9
:1036F0005211DB17D31A1AB21B4BDA821A4BB3F9E9
:1037000018301A4A82FB03125211DB17D31A1AB26D
:10371000154B1A83144BB3F91A30144A82FB031267
:103720005211DB17D31A1AB20F4B5A830E4BB3F94F
:103730001A300E4A82FB03125211DB17D31A1AB247
:10374000094B9A83084BB3F91E30084A82FB0312D7
:103750005211DB17D31A1AB2034BDA8300BF0837B2
:10376000BD4680BD8C050020A4050020B5814E1B00
:103770002DE9B04F84B000AF794BDB88FB81784BEB
:103780001B89BB81B7F90E30002B36DAB7F90C3044
:10379000002B32DAB7F90E20B7F90C3092FBF3F3B5
:1037A0001846FCF777FE03460C463B6024F00043C6
:1037B0007B604FF000026B4BD7E90001FDF75AF92F
:1037C0000346002B0CD0684B684A1A60684B694A64
:1037D0001A60694B694A1A60694B6A4A1A60BAE012
:1037E000614B694A1A60624B684A1A60624B684AC8
:1037F0001A60634B674A1A60ADE0B7F90E30002BD0
:1038000035DAB7F90C30002B31DDB7F90E20B7F9F6
:103810000C3092FBF3F31846FCF73CFE03460C46D3
:103820009A4624F0004B4FF000024E4B504659464A
:10383000FDF720F90346002B0CD04B4B564A1A607B
:103840004B4B4C4A1A604C4B544A1A604C4B544AEE
:103850001A6080E0444B504A1A60454B514A1A6046
:10386000454B514A1A60464B504A1A6073E0B7F90B
:103870000E30002B35DDB7F90C30002B31DDB7F9F8
:103880000E20B7F90C3092FBF3F31846FCF702FE5A
:1038900003460C46984624F000494FF00002314B95
:1038A00040464946FDF7E6F80346002B0CD02E4B68
:1038B0003F4A1A602E4B394A1A602F4B2D4A1A6024
:1038C0002F4B2A4A1A6046E0274B3A4A1A60284B87
:1038D000354A1A60284B334A1A60294B354A1A6018
:1038E00039E0B7F90E30002B35DDB7F90C30002B7D
:1038F00031DAB7F90E20B7F90C3092FBF3F3184622
:10390000FCF7C8FD02460B46144623F000454FF075
:103910000002144B20462946FDF7ACF80346002B65
:103920000CD0114B244A1A60114B244A1A60124BD6
:10393000104A1A60124B224A1A600CE00A4B1E4AC7
:103940001A600B4B124A1A600B4B1E4A1A600C4B42
:103950001D4A1A60FFE700BF1037BD46BDE8B08FB3
:10396000C40500200000F03F040000200AD7A3BBDC
:1039700044050020A8C64BBE48050020BE9F7A3FE4
:103980004C0500204ED111BC6F1203BC7B140EBF3E
:10399000E17A543F6F1203BB0AD7A33B355E7ABF6F
:1039A000A69B443C68910DBFE17A54BF99BB16BBFE
:1039B00052499D3A99BB163B0AD7233B355E7A3F65
:1039C0006F12033C295C0FBFBC74933B90B59FB052
:1039D00000AFD64B93ED007AD44BD3ED007A67EE6F
:1039E000277AC7ED1D7AD14B93ED007AD04BD3EDFA
:1039F000007A67EE277AC7ED1C7ACC4B93ED007AFC
:103A0000CC4BD3ED007A67EE277AC7ED1B7AC74B14
:103A100093ED007AC84BD3ED007A67EE277AC7EDB5
:103A20001A7AC34B93ED007AC14BD3ED007A67EE5F
:103A3000277AC7ED197ABE4B93ED007ABD4BD3EDD3
:103A4000007A67EE277AC7ED187AB94B93ED007AC2
:103A5000B94BD3ED007A67EE277AC7ED177AB54BED
:103A600093ED007AB34BD3ED007A67EE277AC7ED7A
:103A7000167AB04B93ED007AAF4BD3ED007A67EE38
:103A8000277AC7ED157AAC4B93ED007AAA4BD3EDAC
:103A9000007A67EE277AC7ED147AA84B1B69A84A0B
:103AA0001360A64B5B69A74A1360A44B9B69A64AA7
:103AB0001360A24BB3F9003007EE903AF8EEE77AC4
:103AC000A24BC3ED007A9D4BB3F9023007EE903A5A
:103AD000F8EEE77A9E4BC3ED007A984BB3F90430C9
:103AE00007EE903AF8EEE77A9A4BC3ED007A934BE3
:103AF000B3F9063007EE903AF8EEE77A964BC3ED4D
:103B0000007A8E4BB3F9083007EE903AF8EEE77A78
:103B1000924BC3ED007A894BB3F90A3007EE903A25
:103B2000F8EEE77A8E4BC3ED007A00F067FF0246AD
:103B30008C4B1A608B4B1A688B4B1B68D31A07EEA1
:103B4000903AB8EE677ADFED896AC7EE267AC7ED5C
:103B5000137A844B1B68844A13607C4B93ED007A84
:103B60007A4BD3ED007A27EE277A794BD3ED006AB2
:103B7000774BD3ED007A66EEA77A37EE277A754B4E
:103B8000D3ED006A734BD3ED007A66EEA77A77EE39
:103B9000277AB0EE670AFFF799F987ED120A6B4BA7
:103BA00093ED007AD7ED127A67EE277A674BC3ED73
:103BB000007A674B93ED007AD7ED127A67EE277A99
:103BC000634BC3ED007A634B93ED007AD7ED127A25
:103BD00067EE277A5F4BC3ED007A5F4B4FF0000230
:103BE0001A605E4B4FF000021A605D4B4FF000020E
:103BF0001A60594BD3ED007A37EEA77AF6EE006AD9
:103C0000D7ED167A76EEE76AD7ED147A76EEE77A94
:103C100027EE277A514BD3ED007A77EEA76A97ED1E
:103C2000186AD7ED1A7A76EE677A66EEA77A37EEDB
:103C3000277A4B4BD3ED007A77EEA76A97ED176A98
:103C4000D7ED1B7A76EE277A66EEA77A77EE277A9B
:103C5000C7ED117A404BD3ED007A37EEA77AD7ED56
:103C6000186AD7ED1A7A76EEA77A27EE277A3B4BB9
:103C7000D3ED007A77EEA76AB6EE006AD7ED197A2F
:103C800036EE676AD7ED147A76EE677A66EEA77A33
:103C900037EE277A324BD3ED007A77EEA76A97EDAD
:103CA000156AD7ED1C7A76EE677A66EEA77A77EE1C
:103CB000277AC7ED107A284BD3ED007A37EEA77A32
:103CC000D7ED176AD7ED1B7A76EEE77A27EE277ADB
:103CD000224BD3ED007A77EEA76A97ED156AD7ED00
:103CE0001C7A76EE277A66EEA77A37EE277A1C4B97
:103CF000D3ED007A77EEA76AB6EE006AD7ED197AAF
:103D000036EE676AD7ED167A76EE677A66EEA77AB0
:103D100077EE277AC7ED0F7A97ED117AD7ED117A02
:103D200027EE277AD7ED106A22E000BF04000020BA
:103D300044050020480500204C050020C405002053
:103D40005C05002060050020640500206805002057
:103D50006C05002070050020740500207805002007
:103D60007C05002084050020800500200000FA4426
:103D7000D7ED107A66EEA77A77EE277A17EE900ADB
:103D8000FCF79AFB03460C4644EC103B0AF02CFB74
:103D900054EC103B18462146FCF7DEFE0346BB639D
:103DA000FB6B7B6397ED177AD7ED1B7A77EE677A1B
:103DB00077EEA77AC7ED0C7A97ED1C7AD7ED157AD6
:103DC00077EE277A77EEA77AC7ED0B7A97ED1D7A13
:103DD000D7ED197A37EE677AD7ED167A77EE677AEC
:103DE00097ED147A77EE277AC7ED0A7AD7ED0E7A37
:103DF00037EEA77AF6EE006AD7ED167A76EEE76A26
:103E0000D7ED147A76EEE77A27EE277AD7ED0D7A9A
:103E100077EEA76A97ED176AD7ED1B7A76EE677A89
:103E200066EEA77A77EE277AC7ED097AD7ED0E7A94
:103E300037EEA77AD7ED186AD7ED1A7A76EEE77AD9
:103E400027EE277AD7ED0D7A77EEA76A97ED1C6AF1
:103E5000D7ED157A76EE277A66EEA77A77EE277A8F
:103E6000C7ED087AD7ED0E7A37EEA77AD7ED1B6A41
:103E7000D7ED177A76EEA77A27EE277AD7ED0D7A67
:103E800077EEA76AB6EE006AD7ED197A36EE676A62
:103E9000D7ED167A76EE677A66EEA77A77EE277A0E
:103EA000C7ED077AE04B93ED007AD7ED0A7A27EE5B
:103EB000277ADE4BD3ED006AD7ED0B7A66EEA77A50
:103EC00037EE677ADA4BD3ED006AD7ED077A66EE04
:103ED000A76AD84B93ED006AD7ED087A66EE277A89
:103EE00076EEE77A77EE277AC7ED067ACF4B93ED39
:103EF000007AD7ED0C7A27EE277ACF4BD3ED006A04
:103F0000D7ED0A7A66EEA77A37EE677AC94BD3ED1A
:103F1000006AD7ED097A66EEA76AC84B93ED006A8E
:103F2000D7ED077A66EE277A76EEE77A77EE277A8C
:103F3000C7ED057AC04B93ED007AD7ED0B7A27EEEB
:103F4000277AB94BD3ED006AD7ED0C7A66EEA77AE3
:103F500037EE677AB94BD3ED006AD7ED087A66EE93
:103F6000A76AB34B93ED006AD7ED097A66EE277A1C
:103F700076EEE77A77EE277AC7ED047AD7ED067A00
:103F8000F5EE407AF1EE10FA76D0D7ED057AF5EE3F
:103F9000407AF1EE10FA6FD0D7ED047AF5EE407A60
:103FA000F1EE10FA68D0D7ED067A9FEDA57A27EEEC
:103FB000877AD7ED137A27EE277AA24BD3ED007AD2
:103FC00077EE277A9F4BC3ED007AD7ED057A9FED08
:103FD0009C7A27EE877AD7ED137A27EE277A9A4BC9
:103FE000D3ED007A77EE277A974BC3ED007AD7EDC1
:103FF000047A9FED937A27EE877AD7ED137A27EE2E
:10400000277A924BD3ED007A77EE277A8F4BC3ED68
:10401000007AD7ED067A37EEA77A8D4BD3ED007A8A
:1040200037EE277A874BD3ED007A77EE277A884BE5
:10403000C3ED007AD7ED057A37EEA77A854BD3ED3D
:10404000007A37EE277A804BD3ED007A77EE277A25
:10405000804BC3ED007AD7ED047A37EEA77A7E4B1A
:10406000D3ED007A37EE277A784BD3ED007A77EEEE
:10407000277A794BC3ED007A784BD3ED007AB1EE15
:10408000677A734BD3ED007A27EE277A744BD3ED22
:10409000006A704BD3ED007A66EEA77A37EE677A46
:1040A000704BD3ED006A6C4BD3ED007A66EEA77AC5
:1040B00037EE677AD7ED137A27EE277A6A4BD3ED7E
:1040C000007A77EE277AC7ED037A674B93ED007A93
:1040D0005F4BD3ED007A27EE277A614BD3ED006A70
:1040E0005D4BD3ED007A66EEA77A37EE277A5D4B0B
:1040F000D3ED006A574BD3ED007A66EEA77A37EE20
:10410000677AD7ED137A27EE277A544BD3ED007AEE
:1041100077EE277AC7ED027A534B93ED007A4D4B39
:10412000D3ED007A27EE277A4C4BD3ED006A4A4B49
:10413000D3ED007A66EEA77A37EE677A494BD3ED76
:10414000006A434BD3ED007A66EEA77A37EE277A02
:10415000D7ED137A27EE277A414BD3ED007A77EE2D
:10416000277AC7ED017A404B93ED007A3A4BD3EDB5
:10417000007A27EE277A394BD3ED006A354BD3ED21
:10418000007A66EEA77A37EE277A354BD3ED006AD0
:104190002F4BD3ED007A66EEA77A37EE677AD7ED2C
:1041A000137A27EE277A2F4BD3ED007A77EE277A12
:1041B000C7ED007A97ED037AD7ED037A27EE277AD9
:1041C000D7ED026AD7ED027A66EEA77A37EE277A44
:1041D000D7ED016AD7ED017A66EEA77A37EE277A36
:1041E000D7ED006AD7ED007A66EEA77A77EE277AE8
:1041F000B0EE670AFEF76AFE87ED120A97ED037AC2
:10420000D7ED127A67EE277A174BC3ED007A97ED58
:10421000027AD7ED127A67EE277A104BC3ED007A57
:1042200097ED017A22E000BF6C05002070050020A8
:10423000780500207C05002068050020740500201A
:104240000AD7233C500500205405002058050020C3
:104250005C05002060050020640500204405002066
:10426000480500204C05002004000020D7ED127AFC
:1042700067EE277A074BC3ED007A97ED007AD7ED0A
:10428000127A67EE277A044BC3ED007A00BF7C37C1
:10429000BD4690BD480500204C05002000000000F0
:1042A0002DE9B04F00AF764BD3ED007A37EEA77A09
:1042B000744BD3ED007A27EE277A734BD3ED007A57
:1042C00077EEA76A714BD3ED007A66EEA77A77EEA8
:1042D000277A17EE900AFCF7EFF882468B46694B77
:1042E000D3ED007AB8EE007A27EE877A654BD3EDEE
:1042F000007A27EE277A654BD3ED007A77EEA76A2E
:10430000624BD3ED007A66EEA77A77EE677AB7EE66
:10431000007A77EE877A17EE900AFCF7CDF802461E
:104320000B4643EC112B4BEC10AB0AF05BF853EC53
:10433000102B904683F000494FA3D3E90023404659
:104340004946FCF711F902460B4610461946FCF7A0
:1043500003FC02464E4B1A63494BD3ED007AB8EE8C
:10436000007A27EE877A494BD3ED007A27EE277A39
:10437000454BD3ED007A77EEA76A424BD3ED007A36
:1043800066EEA77A77EE277A17EE900AFCF794F894
:1043900002460B4643EC102B09F0C8FF53EC102BE0
:1043A000144683F0004534A3D3E900232046294670
:1043B000FCF7DAF803460C4618462146FCF7CCFB1E
:1043C0000246334BDA622F4BD3ED007A37EEA77AF1
:1043D0002E4BD3ED007A27EE277A2B4BD3ED007AC4
:1043E00077EEA76A264BD3ED007A66EEA77A77EED2
:1043F000277A17EE900AFCF75FF804460D46204B2B
:10440000D3ED007AB8EE007A27EE877A1C4BD3ED15
:10441000007A27EE277A1B4BD3ED007A77EEA76A56
:10442000184BD3ED007A66EEA77A77EE677AB7EE8F
:10443000007A77EE877A17EE900AFCF73DF802468D
:104440000B4643EC112B45EC104B09F0CBFF51EC24
:10445000100B09A3D3E90023FCF786F803460C46AA
:1044600018462146FCF778FB0246094B9A6200BFCA
:10447000BDE8B08FAFF300806666666666A64C4006
:104480004405002048050020040000204C050020C1
:10449000C405002080B500AF00F0B0FA02461A4B08
:1044A0001A60012219491A4803F04CFB194B1B787A
:1044B000002B26D1154B1B780A2B14D1164B00224A
:1044C0001A70144B01221A70144B154A15491648DC
:1044D0000AF0ECFE3222002113480AF0E2FD0D4BF7
:1044E00000221A700EE00C4B1B781A46074B197805
:1044F0000D4B9954084B1B780133DAB2064B1A70F6
:1045000000E000BF80BD00BFFC050020F9050020D1
:1045100024040020FA05002038060020360600207A
:1045200034060020400301080006002080B400AFDC
:10453000034B1B881846BD465DF8047B704700BFDF
:104540003406002080B400AF034B5B881846BD469C
:104550005DF8047B704700BF3406002080B400AFD4
:10456000034B00221A8000BFBD465DF8047B7047F4
:104570003406002080B400AF034B00225A8000BFF5
:10458000BD465DF8047B70473406002080B584B0DA
:1045900000AFF8600B467A607B81FB6879897A68A6
:1045A000184600F00BF8044AFB681A60FB681846CE
:1045B0001037BD4680BD00BFA405010890B585B089
:1045C00000AFF8600B467A607B81104AFB681A6086
:1045D000FB687A899A81FB687A685A61042009F03D
:1045E000CFFC03461C46FB689B891946204604F015
:1045F00033FFFB681C61FB6804E0204609F067F9A3
:1046000009F006FC18461437BD4690BDC8050108E0
:1046100080B584B000AF78607B681B69184604F0F1
:1046200031FF0346FB60FB681B781B02FA6801320E
:104630001278134407EE903AB8EEE77ADFED146A89
:10464000C7EE267A7B68C3ED027AFB6802331B78DB
:104650009BB21B029AB2FB6803331B789BB21344D4
:104660009BB21AB27B689A80FB6804331B789BB2BA
:104670001B029AB2FB6805331B789BB213449BB2B2
:104680001AB27B68DA8000BF1037BD4680BD00BF1C
:10469000ED0FB64180B582B000AF78607B689B8932
:1046A00019467B68B3F906301A467B68B3F90430C3
:1046B000034808F00FFF00BF0837BD4680BD00BFAC
:1046C0005803010880B483B000AF78607B689B68B2
:1046D00007EE903AB0EE670A0C37BD465DF8047BF2
:1046E000704780B582B000AF78600B467B807B68F6
:1046F0005B69B7F9022007EE902AF8EEE77AB0EE90
:10470000670A184604F0E3FA7B685A697B68B3F9D4
:10471000043007EE903AF8EEE77AB0EE670A1046FA
:1047200004F0C0F9F0EE407AFDEEE77A17EE903A29
:104730001BB218460837BD4680BD80B483B000AFB9
:1047400078607B681B6918460C37BD465DF8047BB2
:10475000704780B582B000AF786087ED000A7B6853
:104760005B69D7ED007AFCEEE77A17EE902A92B2F9
:104770001146184604F0BAFA00BF0837BD4680BD9E
:1047800080B582B000AF78607B685B69184604F042
:10479000C1FAF0EE407AB0EE670A0837BD4680BD38
:1047A00080B584B000AF78607B681846FFF730FFB3
:1047B0007B681B69184604F065FE0346FB60FB68D6
:1047C0001B789BB21B029AB2FB6801331B789BB229
:1047D00013449AB27B685A83FB689A797B681A768D
:1047E0007B68D3ED027A9FED057A77EEC77A7B6816
:1047F000C3ED027A00BF1037BD4680BD00003443D0
:1048000080B584B002AF78607B689B8919467B686D
:10481000B3F906301A467B68B3F9043018467B6852
:10482000D3ED027AFDEEE77A17EE903A0093034655
:10483000034808F04FFE00BF0837BD4680BD00BFEB
:104840007003010880B58AB000AFF8607A603B6001
:104850000B467B81FB6879897A681846FFF7AEFEC4
:10486000084AFB681A60798907F110037A681846CC
:10487000FFF7A4FEFB683A68DA61FB681846283740
:10488000BD4680BDE805010880B582B000AF786004
:1048900087ED000A7B68DB6997ED000A184604F093
:1048A00016FA7B68DA697B68D3ED027AB0EE670AA4
:1048B000104604F0F7F8F0EE407AB0EE670A0837D9
:1048C000BD4680BD80B584B000AFF86087ED020AB8
:1048D000C7ED010AFB685B6997ED020A184604F010
:1048E000F6F9FB685B6997ED010A184604F0DAF8FF
:1048F000F0EE407AFDEEE77A17EE903A1BB21846DA
:104900001037BD4680BD80B483B000AF786087EDBE
:10491000000A7B683A689A6000BF0C37BD465DF8B4
:10492000047B704780B582B000AF78607B68184622
:1049300008F0DEFE0346184603F0DAF97B681846F5
:1049400008F0D6FE7B6808331222194603F050F9AE
:1049500000BF0837BD4680BD80B582B000AF78602B
:1049600039607B683968184608F0A8FE074A7B68FA
:104970001A607B68083300221A605A609A60DA6015
:104980001A827B6818460837BD4680BD0C060108B0
:1049900080B500AF0E4B1B680D4A43F400731360E3
:1049A0000B4B1B680A4A43F480631360084B1B6877
:1049B000074A43F480731360032000F008FD0020D1
:1049C000FDF790FDFDF74AFD0023184680BD00BFAE
:1049D000003C024080B400AF064B1B781A46064BE1
:1049E0001B681344044A136000BFBD465DF8047B96
:1049F000704700BF160000203C06002080B400AFC6
:104A0000034B1B681846BD465DF8047B704700BF2A
:104A10003C06002080B584B000AF7860FFF7EEFF61
:104A2000B8607B68FB60FB68B3F1FF3F05D0094BC2
:104A30001B781A46FB681344FB6000BFFFF7DEFFDC
:104A40000246BB68D31AFA689A42F7D800BF1037FB
:104A5000BD4680BD1600002080B584B000AF7860F0
:104A60007B68002B01D10123EDE07B6893F82030B7
:104A7000DBB2002B02D17868FDF760FA7B681B6817
:104A80001A687B681B6822F002021A60FFF7B6FF03
:104A9000F86012E0FFF7B2FF0246FB68D31A0A2B58
:104AA0000BD97B685B6A43F400327B685A627B688F
:104AB000052283F820200123C5E07B681B685B6822
:104AC00003F00203002BE5D17B681B681A687B6842
:104AD0001B6842F001021A60FFF790FFF86012E0D5
:104AE000FFF78CFF0246FB68D31A0A2B0BD97B68B1
:104AF0005B6A43F400327B685A627B68052283F864
:104B0000202001239FE07B681B685B6803F00103A2
:104B1000002BE5D07B681B7E012B08D17B681B68CE
:104B20001A687B681B6842F080021A6007E07B68A5
:104B30001B681A687B681B6822F080021A607B6819
:104B40005B7E012B08D17B681B681A687B681B6839
:104B500042F040021A6007E07B681B681A687B68B5
:104B60001B6822F040021A607B689B7E012B08D1F3
:104B70007B681B681A687B681B6842F020021A6019
:104B800007E07B681B681A687B681B6822F02002BC
:104B90001A607B68DB7E012B08D17B681B681A6872
:104BA0007B681B6822F010021A6007E07B681B68B4
:104BB0001A687B681B6842F010021A607B681B7FD2
:104BC000012B08D17B681B681A687B681B6842F060
:104BD00008021A6007E07B681B681A687B681B681C
:104BE00022F008021A607B685B7F012B08D17B688A
:104BF0001B681A687B681B6842F004021A6007E0B1
:104C00007B681B681A687B681B6822F004021A60C4
:104C10007B689A687B68DB681A437B681B691A4368
:104C20007B685B6942EA03017B685B685A1E7B68AC
:104C30001B680A43DA617B6800225A627B680122A2
:104C400083F82020002318461037BD4680BD0000A1
:104C500080B487B000AF786039607B681B687B6187
:104C60007B6893F82030FB74FB7C012B03D0FB7C2A
:104C7000022B40F0BE80654B7B617B69D3F800322C
:104C800043F001027B69C3F800227B69D3F800324C
:104C900023F47C527B69C3F800227B69D3F800229D
:104CA0003B685B6A1B021A437B69C3F800223B68BE
:104CB0005B6903F01F03012202FA03F3FB607B69C7
:104CC000D3F81C22FB68DB431A407B69C3F81C2223
:104CD0003B68DB69002B23D17B69D3F80C22FB688E
:104CE000DB431A407B69C3F80C223B68DB6819047C
:104CF0003B685B689BB23A68526919437B694832EA
:104D000043F832103B689B6819043B681B689AB2F1
:104D10003B685B690A4379694833DB000B445A609E
:104D20003B68DB69012B22D17B69D3F80C22FB683D
:104D30001A437B69C3F80C223B681B6819043B6863
:104D40005B689BB23A68526919437B69483243F801
:104D500032103B689B6819043B68DB689AB23B6879
:104D60005B690A4379694833DB000B445A603B684E
:104D70009B69002B09D17B69D3F80422FB68DB43D4
:104D80001A407B69C3F8042207E07B69D3F8042248
:104D9000FB681A437B69C3F804223B681B69002B3C
:104DA00009D17B69D3F81422FB68DB431A407B6985
:104DB000C3F8142207E07B69D3F81422FB681A4376
:104DC0007B69C3F814223B681B6A012B07D17B69FE
:104DD000D3F81C22FB681A437B69C3F81C227B6949
:104DE000D3F8003223F001027B69C3F800220023CC
:104DF00006E07B685B6A43F480227B685A62012389
:104E000018461C37BD465DF8047B704700640040BF
:104E100080B584B000AF78607B6893F82030DBB257
:104E2000012B2ED17B68022283F820207B681B682F
:104E30001A687B681B6822F001021A60FFF7DEFD2A
:104E4000F86012E0FFF7DAFD0246FB68D31A0A2B7E
:104E50000BD97B685B6A43F400327B685A627B68DB
:104E6000052283F82020012312E07B681B685B6821
:104E700003F00103002BE5D17B6800225A62002376
:104E800006E07B685B6A43F400227B685A62012378
:104E900018461037BD4680BD80B489B000AFF860B9
:104EA000B9607A603B60FB6893F82030FB77FB6861
:104EB0001B689B68BB61FB7F012B03D0FB7F022B30
:104EC00040F0B880BB6903F08063002B0AD1BB6956
:104ED00003F00063002B05D1BB6903F08053002B66
:104EE00000F0A080BB691B0E03F003037B617B69AC
:104EF000022B07D9FB685B6A43F40002FB685A6225
:104F000001239EE001227B699A403B681A60BB68DE
:104F10009B68002B0DD1BB681B685A05BB68DB681A
:104F2000F96809681A437B6918331B010B441A603E
:104F30000FE0BB685B68DA00BB689B681A43BB681C
:104F4000DB68F96809681A437B6918331B010B4455
:104F50001A60FB681968BB681A697B6918331B0102
:104F60000B4404331A60BB681B7D012B11D1FB6815
:104F70001A687B6918331B01134404331B68FA68F1
:104F8000116843F480727B6918331B010B440433AE
:104F90001A607B6807331B781A067B6806331B7818
:104FA0001B041A437B6805331B781B0213437A6882
:104FB000043212781046FA68116843EA00027B69ED
:104FC0001B010B4403F5C6731A607B6803331B781F
:104FD0001A067B6802331B781B041A437B68013373
:104FE0001B781B0213437A6812781046FA6811681E
:104FF00043EA00027B691B010B4403F5C4731A608A
:10500000FB681A687B6918331B0113441B68FA6834
:10501000116843F001027B6918331B010B441A60CD
:1050200000230EE0FB685B6A43F40012FB685A62DF
:10503000012306E0FB685B6A43F48022FB685A6246
:10504000012318462437BD465DF8047B704780B4C1
:1050500087B000AFF860B9607A603B60FB6893F896
:105060002030FB75FB7D012B03D0FB7D022B40F034
:10507000F480BB68002B0ED1FB681B68DB6803F073
:105080000303002B16D1FB685B6A43F40012FB6834
:105090005A620123E8E0FB681B681B6903F0030305
:1050A000002B07D1FB685B6A43F40012FB685A626D
:1050B0000123D9E0FB681A68BB681B331B0113444A
:1050C0001B6803F004027B689A607B689B68002B76
:1050D0000CD1FB681A68BB681B331B0113441B68A7
:1050E0005B0DC3F30A027B681A600BE0FB681A6869
:1050F000BB681B331B0113441B68DB0823F06042B1
:105100007B685A60FB681A68BB681B331B01134439
:105110001B685B0803F001027B68DA60FB681A68B1
:10512000BB681B331B01134404331B6803F00F02DD
:105130007B681A61FB681A68BB681B331B01134448
:1051400004331B681B0ADAB27B689A61FB681A6831
:10515000BB681B331B01134404331B681B0C9AB23E
:105160007B685A61FB681A68BB681B01134403F52E
:10517000DC731B68DAB23B681A70FB681A68BB689C
:105180001B01134403F5DC731B681A0A3B680133E7
:10519000D2B21A70FB681A68BB681B01134403F58E
:1051A000DC731B681A0C3B680233D2B21A70FB68BE
:1051B0001A68BB681B01134403F5DC731B681A0EE5
:1051C0003B680333D2B21A70FB681A68BB681B01D4
:1051D000134403F5DE731A683B680433D2B21A70C5
:1051E000FB681A68BB681B01134403F5DE731B6878
:1051F0001A0A3B680533D2B21A70FB681A68BB689A
:105200001B01134403F5DE731B681A0C3B6806335D
:10521000D2B21A70FB681A68BB681B01134403F50D
:10522000DE731B681A0E3B680733D2B21A70BB6874
:10523000002B08D1FB681B68DA68FB681B6842F02A
:105240002002DA6007E0FB681B681A69FB681B68CC
:1052500042F020021A61002306E0FB685B6A43F417
:105260008022FB685A62012318461C37BD465DF850
:10527000047B704780B485B000AF78607B6803F032
:105280000703FB600C4BDB68BB60BA684FF6FF039B
:105290001340BB60FB681A02BB68134343F0BF6353
:1052A00043F40033BB60044ABB68D36000BF1437CB
:1052B000BD465DF8047B704700ED00E080B400AFB0
:1052C000044BDB681B0A03F007031846BD465DF874
:1052D000047B704700ED00E080B483B000AF03466C
:1052E000FB7197F90730002B0BDBFB7903F01F02F2
:1052F000074997F907305B09012000FA02F241F8EB
:10530000232000BF0C37BD465DF8047B704700BF0B
:1053100000E100E080B483B000AF03463960FB7168
:1053200097F90730002B0ADB3B68DAB20C4997F992
:1053300007301201D2B20B4483F800230AE03B6825
:10534000DAB20849FB7903F00F03043B1201D2B231
:105350000B441A7600BF0C37BD465DF8047B7047DE
:1053600000E100E000ED00E080B489B000AFF8603B
:10537000B9607A60FB6803F00703FB61FB69C3F166
:105380000703042B28BF0423BB61FB690433062BEE
:1053900002D9FB69033B00E000237B614FF0FF3241
:1053A000BB6902FA03F3DA43BB681A407B699A408F
:1053B0004FF0FF317B6901FA03F3D9437B680B405F
:1053C000134318462437BD465DF8047B704780B50B
:1053D00082B000AF78607868FFF74CFF00BF0837F5
:1053E000BD4680BD80B586B000AF0346B9607A6027
:1053F000FB7300237B61FFF761FF78617A68B9680E
:105400007869FFF7B1FF024697F90F301146184649
:10541000FFF780FF00BF1837BD4680BD80B582B062
:1054200000AF0346FB7197F907301846FFF754FFAA
:1054300000BF0837BD4680BD80B586B000AF78603C
:1054400000237B61FFF7DAFA38617B68002B01D11A
:10545000012399E07B68002283F834207B680222D4
:1054600083F835207B681B681A687B681B6822F00C
:1054700001021A600FE0FFF7C1FA02463B69D31A36
:10548000052B08D97B6820225A657B68032283F8A4
:105490003520032378E07B681B681B6803F0010359
:1054A000002BE8D17B681B681B687B617A69384BED
:1054B00013407B617B685A687B689B681A437B68F2
:1054C000DB681A437B681B691A437B685B691A4374
:1054D0007B689B691A437B68DB691A437B681B6A9C
:1054E00013437A6913437B617B685B6A042B07D1A2
:1054F0007B68DA6A7B681B6B13437A6913437B61B1
:105500007B681B687A691A607B681B685B697B61D2
:105510007B6923F007037B617B685B6A7A691343CD
:105520007B617B685B6A042B17D17B689B6A7A6915
:1055300013437B617B68DB6A002B0ED0786800F038
:1055400009FB0346002B08D07B6840225A657B6824
:10555000012283F83520012316E07B681B687A69F5
:105560005A61786800F0C0FA0346FB607B68DB6D27
:105570003F229A40FB689A607B6800225A657B68EC
:10558000012283F83520002318461837BD4680BD18
:105590003F8010F080B586B000AFF860B9607A60E7
:1055A0003B600023FB75FB689B6D3B61FB6893F8D8
:1055B0003430012B01D1022348E0FB68012283F83B
:1055C0003420FB6893F83530DBB2012B37D1FB6810
:1055D000022283F83520FB6800225A653B687A680E
:1055E000B968F86800F052FAFB68DB6D3F229A4018
:1055F0003B699A60FB681B681A68FB681B6842F08D
:1056000016021A60FB681B685A69FB681B6842F047
:1056100080025A61FB681B6C002B07D0FB681B687B
:105620001A68FB681B6842F008021A60FB681B6876
:105630001A68FB681B6842F001021A6005E0FB680B
:10564000002283F834200223FB75FB7D18461837AF
:10565000BD4680BD80B584B000AF78607B689B6D2F
:10566000FB60FFF7CBF9B8607B6893F83530DBB2AD
:10567000022B08D07B6880225A657B68002283F861
:105680003420012352E07B681B681A687B681B6822
:1056900022F016021A607B681B685A697B681B68D7
:1056A00022F080025A617B681B6C002B03D17B685F
:1056B0009B6C002B07D07B681B681A687B681B6893
:1056C00022F008021A607B681B681A687B681B68F6
:1056D00022F001021A6013E0FFF790F90246BB685E
:1056E000D31A052B0CD97B6820225A657B680022CF
:1056F00083F834207B68032283F83520032315E0E8
:105700007B681B681B6803F00103002BE4D17B68F6
:10571000DB6D3F229A40FB689A607B68002283F829
:1057200034207B68012283F8352000231846103787
:10573000BD4680BD80B483B000AF78607B6893F8CD
:105740003530DBB2022B04D07B6880225A650123FE
:105750000CE07B68052283F835207B681B681A689B
:105760007B681B6822F001021A60002318460C3780
:10577000BD465DF8047B704780B586B000AF7860A9
:105780000023BB60924B1B68924AA2FB03239B0A37
:105790007B617B689B6D3B613B691B68FB607B6841
:1057A000DB6D08229A40FB681340002B1AD07B68FF
:1057B0001B681B6803F00403002B13D07B681B6875
:1057C0001A687B681B6822F004021A607B68DB6D34
:1057D00008229A403B699A607B685B6D43F0010246
:1057E0007B685A657B68DB6D01229A40FB68134039
:1057F000002B12D07B681B685B6903F08003002BD1
:105800000BD07B68DB6D01229A403B699A607B6814
:105810005B6D43F002027B685A657B68DB6D042296
:105820009A40FB681340002B12D07B681B681B68F2
:1058300003F00203002B0BD07B68DB6D04229A403F
:105840003B699A607B685B6D43F004027B685A6534
:105850007B68DB6D10229A40FB681340002B43D01D
:105860007B681B681B6803F00803002B3CD07B6837
:10587000DB6D10229A403B699A607B681B681B684D
:1058800003F48023002B18D07B681B681B6803F48B
:105890000023002B08D17B681B6C002B24D07B6875
:1058A0001B6C786898471FE07B689B6C002B1BD0B3
:1058B0007B689B6C7868984716E07B681B681B6860
:1058C00003F48073002B07D17B681B681A687B6820
:1058D0001B6822F008021A607B681B6C002B03D047
:1058E0007B681B6C786898477B68DB6D20229A4048
:1058F000FB681340002B00F08E807B681B681B68E0
:1059000003F01003002B00F086807B68DB6D202203
:105910009A403B699A607B6893F83530DBB2052B7F
:1059200036D17B681B681A687B681B6822F01602F8
:105930001A607B681B685A697B681B6822F08002CA
:105940005A617B681B6C002B03D17B689B6C002B1E
:1059500007D07B681B681A687B681B6822F0080206
:105960001A607B68DB6D3F229A403B699A607B68D6
:10597000002283F834207B68012283F835207B687D
:105980001B6D002B7DD07B681B6D7868984778E095
:105990007B681B681B6803F48023002B1CD07B688A
:1059A0001B681B6803F40023002B08D17B685B6C29
:1059B000002B30D07B685B6C786898472BE07B6865
:1059C000DB6B002B27D07B68DB6B7868984722E085
:1059D00000000020B5814E1B7B681B681B6803F428
:1059E0008073002B0FD17B681B681A687B681B686B
:1059F00022F010021A607B68002283F834207B6852
:105A0000012283F835207B68DB6B002B03D07B6899
:105A1000DB6B786898477B685B6D002B32D07B68C6
:105A20005B6D03F00103002B22D07B68052283F815
:105A300035207B681B681A687B681B6822F00102AE
:105A40001A60BB680133BB607A699A4207D37B68EE
:105A50001B681B6803F00103002BF2D100E000BFBC
:105A60007B68002283F834207B68012283F835208C
:105A70007B68DB6C002B05D07B68DB6C7868984713
:105A800000E000BF1837BD4680BD00BF80B485B0C0
:105A900000AFF860B9607A603B60FB681B681A6809
:105AA000FB681B6822F480221A60FB681B683A6856
:105AB0005A60FB689B68402B08D1FB681B687A68BA
:105AC0009A60FB681B68BA68DA6007E0FB681B68CD
:105AD000BA689A60FB681B687A68DA6000BF14379E
